{
  "_format": "hh-sol-artifact-1",
  "contractName": "LandRegistry",
  "sourceName": "contracts/LandRegistry.sol",
  "abi": [
    {
      "anonymous": false,
      "inputs": [
        {
          "indexed": true,
          "internalType": "uint256",
          "name": "landId",
          "type": "uint256"
        },
        {
          "indexed": true,
          "internalType": "address",
          "name": "owner",
          "type": "address"
        },
        {
          "indexed": false,
          "internalType": "string",
          "name": "location",
          "type": "string"
        }
      ],
      "name": "LandRegistered",
      "type": "event"
    },
    {
      "anonymous": false,
      "inputs": [
        {
          "indexed": true,
          "internalType": "uint256",
          "name": "landId",
          "type": "uint256"
        },
        {
          "indexed": true,
          "internalType": "address",
          "name": "oldOwner",
          "type": "address"
        },
        {
          "indexed": true,
          "internalType": "address",
          "name": "newOwner",
          "type": "address"
        }
      ],
      "name": "LandTransferred",
      "type": "event"
    },
    {
      "inputs": [],
      "name": "getAllLands",
      "outputs": [
        {
          "components": [
            {
              "internalType": "uint256",
              "name": "id",
              "type": "uint256"
            },
            {
              "internalType": "address",
              "name": "owner",
              "type": "address"
            },
            {
              "internalType": "string",
              "name": "location",
              "type": "string"
            }
          ],
          "internalType": "struct LandRegistry.Land[]",
          "name": "",
          "type": "tuple[]"
        }
      ],
      "stateMutability": "view",
      "type": "function"
    },
    {
      "inputs": [
        {
          "internalType": "uint256",
          "name": "landId",
          "type": "uint256"
        }
      ],
      "name": "getLand",
      "outputs": [
        {
          "components": [
            {
              "internalType": "uint256",
              "name": "id",
              "type": "uint256"
            },
            {
              "internalType": "address",
              "name": "owner",
              "type": "address"
            },
            {
              "internalType": "string",
              "name": "location",
              "type": "string"
            }
          ],
          "internalType": "struct LandRegistry.Land",
          "name": "",
          "type": "tuple"
        }
      ],
      "stateMutability": "view",
      "type": "function"
    },
    {
      "inputs": [
        {
          "internalType": "uint256",
          "name": "landId",
          "type": "uint256"
        },
        {
          "internalType": "address",
          "name": "owner",
          "type": "address"
        },
        {
          "internalType": "string",
          "name": "location",
          "type": "string"
        }
      ],
      "name": "registerLand",
      "outputs": [],
      "stateMutability": "nonpayable",
      "type": "function"
    },
    {
      "inputs": [
        {
          "internalType": "uint256",
          "name": "landId",
          "type": "uint256"
        },
        {
          "internalType": "address",
          "name": "newOwner",
          "type": "address"
        }
      ],
      "name": "transferLand",
      "outputs": [],
      "stateMutability": "nonpayable",
      "type": "function"
    },
    {
      "inputs": [
        {
          "internalType": "uint256",
          "name": "landId",
          "type": "uint256"
        },
        {
          "internalType": "address",
          "name": "owner",
          "type": "address"
        }
      ],
      "name": "verifyOwnership",
      "outputs": [
        {
          "internalType": "bool",
          "name": "",
          "type": "bool"
        }
      ],
      "stateMutability": "view",
      "type": "function"
    }
  ],
  "bytecode": "0x608060405234801561001057600080fd5b5061155a806100206000396000f3fe608060405234801561001057600080fd5b50600436106100575760003560e01c806309cc449d1461005c578063b7b6e5431461008c578063c798ff7d146100aa578063f02dd53f146100c6578063f6c0562b146100f6575b600080fd5b61007660048036038101906100719190610a88565b610112565b6040516100839190610ae3565b60405180910390f35b6100946101af565b6040516100a19190610cbe565b60405180910390f35b6100c460048036038101906100bf9190610a88565b61037e565b005b6100e060048036038101906100db9190610ce0565b6105c2565b6040516100ed9190610d5d565b60405180910390f35b610110600480360381019061010b9190610eb4565b610740565b005b60006001600084815260200190815260200160002060009054906101000a900460ff1661014257600090506101a9565b8173ffffffffffffffffffffffffffffffffffffffff1660008085815260200190815260200160002060010160009054906101000a900473ffffffffffffffffffffffffffffffffffffffff1673ffffffffffffffffffffffffffffffffffffffff161490505b92915050565b6060600060028054905067ffffffffffffffff8111156101d2576101d1610d89565b5b60405190808252806020026020018201604052801561020b57816020015b6101f86109a9565b8152602001906001900390816101f05790505b50905060005b600280549050811015610376576000806002838154811061023557610234610f23565b5b90600052602060002001548152602001908152602001600020604051806060016040529081600082015481526020016001820160009054906101000a900473ffffffffffffffffffffffffffffffffffffffff1673ffffffffffffffffffffffffffffffffffffffff1673ffffffffffffffffffffffffffffffffffffffff1681526020016002820180546102c990610f81565b80601f01602080910402602001604051908101604052809291908181526020018280546102f590610f81565b80156103425780601f1061031757610100808354040283529160200191610342565b820191906000526020600020905b81548152906001019060200180831161032557829003601f168201915b50505050508152505082828151811061035e5761035d610f23565b5b60200260200101819052508080600101915050610211565b508091505090565b6001600083815260200190815260200160002060009054906101000a900460ff166103de576040517f08c379a00000000000000000000000000000000000000000000000000000000081526004016103d59061100f565b60405180910390fd5b600073ffffffffffffffffffffffffffffffffffffffff168173ffffffffffffffffffffffffffffffffffffffff160361044d576040517f08c379a00000000000000000000000000000000000000000000000000000000081526004016104449061107b565b60405180910390fd5b600080600084815260200190815260200160002090508060010160009054906101000a900473ffffffffffffffffffffffffffffffffffffffff1673ffffffffffffffffffffffffffffffffffffffff163373ffffffffffffffffffffffffffffffffffffffff16146104f5576040517f08c379a00000000000000000000000000000000000000000000000000000000081526004016104ec906110e7565b60405180910390fd5b60008160010160009054906101000a900473ffffffffffffffffffffffffffffffffffffffff169050828260010160006101000a81548173ffffffffffffffffffffffffffffffffffffffff021916908373ffffffffffffffffffffffffffffffffffffffff1602179055508273ffffffffffffffffffffffffffffffffffffffff168173ffffffffffffffffffffffffffffffffffffffff16857f1080b2f211753e5090f26ef7ffdc6bb3e66a125c7290200d10b502160bb1f56660405160405180910390a450505050565b6105ca6109a9565b6001600083815260200190815260200160002060009054906101000a900460ff1661062a576040517f08c379a00000000000000000000000000000000000000000000000000000000081526004016106219061100f565b60405180910390fd5b600080838152602001908152602001600020604051806060016040529081600082015481526020016001820160009054906101000a900473ffffffffffffffffffffffffffffffffffffffff1673ffffffffffffffffffffffffffffffffffffffff1673ffffffffffffffffffffffffffffffffffffffff1681526020016002820180546106b790610f81565b80601f01602080910402602001604051908101604052809291908181526020018280546106e390610f81565b80156107305780601f1061070557610100808354040283529160200191610730565b820191906000526020600020905b81548152906001019060200180831161071357829003601f168201915b5050505050815250509050919050565b6001600084815260200190815260200160002060009054906101000a900460ff16156107a1576040517f08c379a000000000000000000000000000000000000000000000000000000000815260040161079890611153565b60405180910390fd5b600073ffffffffffffffffffffffffffffffffffffffff168273ffffffffffffffffffffffffffffffffffffffff1603610810576040517f08c379a0000000000000000000000000000000000000000000000000000000008152600401610807906111bf565b60405180910390fd5b6000815111610854576040517f08c379a000000000000000000000000000000000000000000000000000000000815260040161084b9061122b565b60405180910390fd5b60405180606001604052808481526020018373ffffffffffffffffffffffffffffffffffffffff168152602001828152506000808581526020019081526020016000206000820151816000015560208201518160010160006101000a81548173ffffffffffffffffffffffffffffffffffffffff021916908373ffffffffffffffffffffffffffffffffffffffff16021790555060408201518160020190816108fd91906113f7565b50905050600180600085815260200190815260200160002060006101000a81548160ff02191690831515021790555060028390806001815401808255809150506001900390600052602060002001600090919091909150558173ffffffffffffffffffffffffffffffffffffffff16837f9c4ad74928fec1ee86181680df0e76bf575b79ea2a0347f7ed270884bdd26ad78360405161099c9190611502565b60405180910390a3505050565b604051806060016040528060008152602001600073ffffffffffffffffffffffffffffffffffffffff168152602001606081525090565b6000604051905090565b600080fd5b600080fd5b6000819050919050565b610a07816109f4565b8114610a1257600080fd5b50565b600081359050610a24816109fe565b92915050565b600073ffffffffffffffffffffffffffffffffffffffff82169050919050565b6000610a5582610a2a565b9050919050565b610a6581610a4a565b8114610a7057600080fd5b50565b600081359050610a8281610a5c565b92915050565b60008060408385031215610a9f57610a9e6109ea565b5b6000610aad85828601610a15565b9250506020610abe85828601610a73565b9150509250929050565b60008115159050919050565b610add81610ac8565b82525050565b6000602082019050610af86000830184610ad4565b92915050565b600081519050919050565b600082825260208201905092915050565b6000819050602082019050919050565b610b33816109f4565b82525050565b610b4281610a4a565b82525050565b600081519050919050565b600082825260208201905092915050565b60005b83811015610b82578082015181840152602081019050610b67565b60008484015250505050565b6000601f19601f8301169050919050565b6000610baa82610b48565b610bb48185610b53565b9350610bc4818560208601610b64565b610bcd81610b8e565b840191505092915050565b6000606083016000830151610bf06000860182610b2a565b506020830151610c036020860182610b39565b5060408301518482036040860152610c1b8282610b9f565b9150508091505092915050565b6000610c348383610bd8565b905092915050565b6000602082019050919050565b6000610c5482610afe565b610c5e8185610b09565b935083602082028501610c7085610b1a565b8060005b85811015610cac5784840389528151610c8d8582610c28565b9450610c9883610c3c565b925060208a01995050600181019050610c74565b50829750879550505050505092915050565b60006020820190508181036000830152610cd88184610c49565b905092915050565b600060208284031215610cf657610cf56109ea565b5b6000610d0484828501610a15565b91505092915050565b6000606083016000830151610d256000860182610b2a565b506020830151610d386020860182610b39565b5060408301518482036040860152610d508282610b9f565b9150508091505092915050565b60006020820190508181036000830152610d778184610d0d565b905092915050565b600080fd5b600080fd5b7f4e487b7100000000000000000000000000000000000000000000000000000000600052604160045260246000fd5b610dc182610b8e565b810181811067ffffffffffffffff82111715610de057610ddf610d89565b5b80604052505050565b6000610df36109e0565b9050610dff8282610db8565b919050565b600067ffffffffffffffff821115610e1f57610e1e610d89565b5b610e2882610b8e565b9050602081019050919050565b82818337600083830152505050565b6000610e57610e5284610e04565b610de9565b905082815260208101848484011115610e7357610e72610d84565b5b610e7e848285610e35565b509392505050565b600082601f830112610e9b57610e9a610d7f565b5b8135610eab848260208601610e44565b91505092915050565b600080600060608486031215610ecd57610ecc6109ea565b5b6000610edb86828701610a15565b9350506020610eec86828701610a73565b925050604084013567ffffffffffffffff811115610f0d57610f0c6109ef565b5b610f1986828701610e86565b9150509250925092565b7f4e487b7100000000000000000000000000000000000000000000000000000000600052603260045260246000fd5b7f4e487b7100000000000000000000000000000000000000000000000000000000600052602260045260246000fd5b60006002820490506001821680610f9957607f821691505b602082108103610fac57610fab610f52565b5b50919050565b600082825260208201905092915050565b7f4c616e6420646f6573206e6f7420657869737400000000000000000000000000600082015250565b6000610ff9601383610fb2565b915061100482610fc3565b602082019050919050565b6000602082019050818103600083015261102881610fec565b9050919050565b7f496e76616c6964206e6577206f776e6572206164647265737300000000000000600082015250565b6000611065601983610fb2565b91506110708261102f565b602082019050919050565b6000602082019050818103600083015261109481611058565b9050919050565b7f4f6e6c792063757272656e74206f776e65722063616e207472616e7366657200600082015250565b60006110d1601f83610fb2565b91506110dc8261109b565b602082019050919050565b60006020820190508181036000830152611100816110c4565b9050919050565b7f4c616e6420616c72656164792072656769737465726564000000000000000000600082015250565b600061113d601783610fb2565b915061114882611107565b602082019050919050565b6000602082019050818103600083015261116c81611130565b9050919050565b7f496e76616c6964206f776e657220616464726573730000000000000000000000600082015250565b60006111a9601583610fb2565b91506111b482611173565b602082019050919050565b600060208201905081810360008301526111d88161119c565b9050919050565b7f4c6f636174696f6e206973207265717569726564000000000000000000000000600082015250565b6000611215601483610fb2565b9150611220826111df565b602082019050919050565b6000602082019050818103600083015261124481611208565b9050919050565b60008190508160005260206000209050919050565b60006020601f8301049050919050565b600082821b905092915050565b6000600883026112ad7fffffffffffffffffffffffffffffffffffffffffffffffffffffffffffffffff82611270565b6112b78683611270565b95508019841693508086168417925050509392505050565b6000819050919050565b60006112f46112ef6112ea846109f4565b6112cf565b6109f4565b9050919050565b6000819050919050565b61130e836112d9565b61132261131a826112fb565b84845461127d565b825550505050565b600090565b61133761132a565b611342818484611305565b505050565b5b818110156113665761135b60008261132f565b600181019050611348565b5050565b601f8211156113ab5761137c8161124b565b61138584611260565b81016020851015611394578190505b6113a86113a085611260565b830182611347565b50505b505050565b600082821c905092915050565b60006113ce600019846008026113b0565b1980831691505092915050565b60006113e783836113bd565b9150826002028217905092915050565b61140082610b48565b67ffffffffffffffff81111561141957611418610d89565b5b6114238254610f81565b61142e82828561136a565b600060209050601f831160018114611461576000841561144f578287015190505b61145985826113db565b8655506114c1565b601f19841661146f8661124b565b60005b8281101561149757848901518255600182019150602085019450602081019050611472565b868310156114b457848901516114b0601f8916826113bd565b8355505b6001600288020188555050505b505050505050565b60006114d482610b48565b6114de8185610fb2565b93506114ee818560208601610b64565b6114f781610b8e565b840191505092915050565b6000602082019050818103600083015261151c81846114c9565b90509291505056fea26469706673582212208ab3e113a049c14bf5003f994c4790bc95942f2a811826689a948cfd124abba964736f6c63430008180033",
  "linkReferences": {},
  "deployedLinkReferences": {}
}